:1000000001308A00B2290000831809283B3084009F
:100010008313F701F801F901FA01BB01BC01BD012D
:10002000BE013A0839043804370403194728203040
:10003000BF000310B30DB40DB50DB60DBB0DBC0D57
:10004000BD0DBE0D3A083E02031D302839083D02A1
:10005000031D302838083C02031D302837083B02B6
:10006000031C41283708BB023808031C380FBC02A8
:100070003908031C390FBD023A08031C3A0FBE02AF
:100080000314F70DF80DF90DFA0DBF0B19283B08F5
:100090008000840A3C088000840A3D088000840AAD
:1000A0003E08800008002608013A03195E28053A38
:1000B00003196128143A0319642867280430A7003B
:1000C0006B280530A7006B280730A7006B28053088
:1000D000A7000430A6002508AB002408AA002608C3
:1000E000AC00FA012C08F900790DB1007A0DB200CC
:1000F000B10DB20DFC30B1053208B4003108B300C7
:100100002B08B6002A08B5001030B700F701FA0135
:10011000B40CB30C031C92283508F7070318FA0A2D
:100120003608FA07FA0CF70CF90CF80CB70B88280C
:100130007908FA007808B1007908B2008310B60196
:10014000F430B5002430B400B301BA01B901790824
:10015000B8007808B700042001307702AD007808B5
:10016000AE000030031C0130AE027908AF00003051
:10017000031C0130AF027A08B0000030031C0130CC
:10018000B002B008031DCB28AF08031DCB282E08F2
:10019000003C0318D028B001AF01AE01FF30AD0024
:1001A000AD08031DE128AE08031DE128AF08031DBB
:1001B000E128B008031DE128B001AF01AE01013014
:1001C000AD002D08F8002E08F9007908A90078087C
:1001D000A800920107112211220883168700FB3024
:1001E00087008312280883169200831295010C3031
:1001F000970001302807AA002908AB000318AB0AB2
:100200002A0DA0002B0DA100A00DA10DFC30A00512
:100210002708043892008C1C0B298C108A110A12B2
:10022000CA292408643C031817296430A400AA01D1
:10023000A901A8012408A7002A08AE002908AD00DA
:100240002808AC002708AB00B201B1012108B000BA
:100250002008AF002030B700B301B401B501B601EA
:100260002E08FA002D08F9002C08F8002B08F700DA
:100270000310771C49292F08B30730080318300FE3
:10028000B40731080318310FB50732080318320FCD
:10029000B607B60CB50CB40CB30CFA0CF90CF80C90
:1002A000F70CB70B38297A08AA007908A900780852
:1002B000A8007708A70083107A08B6007908B5006F
:1002C0007808B4007708B300BA01B901B801643006
:1002D000B70004207808A6007708A5002608A80023
:1002E0002508A70021082802031C8029031D7C295A
:1002F00027082002031880292108A8002008A70049
:100300002808033C031888290330A800FF30A70001
:10031000280CAB00270CAA00AB0CAA0C3F30AB0595
:100320002A08950027080339A900290EF700F030A4
:10033000F70577080C3897000800253084008313F0
:1003400000080319B1290530F800F701F70BA629B9
:10035000F80BA5292E30F700F70BAC29AF29800B3D
:10036000A329080003081F398300A101A001FF3061
:10037000A200831383161F149F141F159F110730AB
:100380009C00831303308312A500E830A4000430DE
:10039000A6005328A3012308643C031CD729230883
:1003A000A40011211430A5009D21A30ACB290230FD
:1003B000A400FA30A5009D21A40BD9296430A30024
:1003C000A3080319EB292308A40011211430A50068
:1003D0009D21A303E0290230A400FA30A5009D214D
:0803E000A40BED29CA296300FA
:02400E007A3FF7
:00000001FF
;PIC16F877A
;CRC=0649  CREATED="20-janv.-26 10:31"
